:020000040000FA
:020000003A289C
:100008007E14803100308600003087004E01961E35
:100018000E280F2817288C1E122813281728853118
:100028007625803138280B1F1A281B283828971D59
:100038001E281F282A288D1D222823282A28400107
:1000480061088A0060080A0080313828171E2D28A8
:100058002E2838280D1E31283228382840015F08FC
:100068008A005E080A0080317E1009003B2886312C
:100078003B268031EC00FD012030840000308500F3
:1000880038308531BD258031A930840000308500A5
:1000980008308531BD2580317E104001462D400154
:1000A8004203031D5828592854294108031D5D2877
:1000B8005E2854290830BF0054298531AC25803189
:1000C800003A0319682869287D2914308531852567
:1000D800803101304001C2000130BF007D298531E7
:1000E800AC258031003A03197A287B287D2985318F
:1000F80033258031013A031D82288328872802305E
:100108004001BF007D2908304001BF007D298531AD
:10011800AC258031003A0319922893287D2984312F
:100128002D248031553A031D9A289B2887280330AF
:100138004001BF007D298531AC258031003A031983
:10014800A628A7287D2984312D2480314001C300A9
:1001580043088431B1248031003A031DB428B528FE
:10016800B6288728F001F00A400143088231DB22D3
:1001780080314001CD004D03031DC328C428CF287A
:100188000230F00043088231DB2280314001CE008A
:100198000430BF007D2986310126803106304001B8
:1001A800BF007D298531AC258031003A0319DD284F
:1001B800DE287D2984312D2480314101A40044307A
:1001C800A5000030A60040013E0841012507A70010
:1001D8000030263DA8002708860028088700240844
:1001E800810001304001BE074E083E02031CFD2875
:1001F800FE287D29BE010530BF007D298531AC254B
:100208008031003A031909290A297D2984312D24CE
:1002180080314001CC004308F0004430F100003048
:10022800F2004E088331B023803140014C06031997
:100238001E291F29202987280730BF007D29400152
:10024800430882310422803107304001BF00400159
:1002580065088A0064080A00813186311A268031CF
:100268004001BE01C2014330F0000030F10000300F
:10027800F200F3000D30F4000030F5008431CB2497
:10028800803142019E1C49294A2950298531FC2583
:1002980080314001BF017D2909304001BF007D291F
:1002A8003F084101A400A5012508003A03195D296A
:1002B8007D292408003A03196128013A0319732893
:1002C800033A03198B28013A03199F28073A03199F
:1002D800D628013A03190229033A03192329013AB6
:1002E80003192B290F3A03193129013A0319452912
:1002F8007D290800F1007108F200F2188429862986
:10030800013087290030F00072188B298D290130BF
:100318008E2900307006031D922994297217952999
:100328007213721998299A2901309B290030F0001C
:10033800721B9F29A1290130A22900307006031DD4
:10034800A629A8297217A9297213721AAC29AE29ED
:100358000130AF290030F000721BB329B5290130F4
:10036800B62900307006031DBA29BC297217BD29A9
:100378007213F219C029C2290130C3290030F000D4
:10038800F218C729C9290130CA2900307006031D8F
:10039800CE29D029F217D129F213721AD429D629D5
:1003A8000130D7290030F000F21BDB29DD290130AC
:1003B800DE2900307006031DE229E429F217E52939
:1003C800F213F21AE829EA290130EB290030F0008B
:1003D800F21BEF29F1290130F22900307006031DC4
:1003E800F629F829F217F929F2130310F21F03145A
:1003F8000318FF29012AF217022AF21372080800CB
:100408004101A000400163084101A30040016208C6
:100418004101A2003F30A005A101232A220884003F
:100428002308850000082006031D1B2A1C2A1D2AF4
:100438002B2A0530A2070030A33D0130A107400157
:10044800660841012102031C2A2A2B2A122A01309C
:100458002207840023080318013E85000008400194
:10046800CD00023041012207840023080318013E11
:10047800850000084001CE004430F0000030F10053
:10048800033041012207840023080318013E850038
:10049800003FF200013FF30040014E08EA00EB0183
:1004A8006A08F4006B08F500843173248231400136
:1004B8004308F0004430F1000030F2004E08833168
:1004C800B02382314001CC004308FA004430FB00DD
:1004D8000030FC004E0884310824823108002430A2
:1004E80040015006031D792A7A2AC82A872A8631AC
:1004F80012268231B92A86310E268231B92A8631EE
:1005080016268231B92A5208093A03197B2A033A76
:1005180003197F2A013A03197F2A073A03197B2A0C
:100528001D3A03197B2A033A03197F2A013A031952
:100538007F2A3A3A03197B2A033A03197F2A013A98
:1005480003197F2A1A3A03197B2A033A03197F2AC7
:10055800013A03197F2A7F3A0319832AD83A0319E3
:100568007F2A203A03197F2AB92A40015108C03945
:100578000319BF2AC02AC42A863132268231DA2AD0
:10058800863135268231DA2A31305006031DCD2ACC
:10059800CE2ADA2A08305106031DD32AD42ADA2AA9
:1005A8008631122682318631352682310800F300E1
:1005B80040016308F6006208F5003F30F305F401D6
:1005C800062B750884007608850000087306031D4D
:1005D800EE2AEF2AF02A252B0530F5070030F63DE4
:1005E8006608FF3EF100FF3003180030F20074087F
:1005F80071067204031D012B022B042B0230382BC9
:100608000130F40766087402031C0B2B0C2BE52A37
:10061800252B75088400760885000008382B0130E2
:100628007507840076080318013E85000008382BFA
:1006380002307507840076080318013E850000081B
:10064800382B7008F100F2017208003A03192D2BBB
:10065800022B7108003A03190D2B013A0319132BC9
:10066800033A03191C2B022B08004E01171277308E
:10067800F0000330F1008531D52583314E01971103
:100688009330F0000430F1008531CF2583310830F4
:1006980042019F0090309D0024309E00FF309B0057
:1006A80002309C004130F0000630F1008531E12530
:1006B80083311E30F0000630F1008531DB258331AF
:1006C8002230F0000630F1008531E7258331400102
:1006D800B801BD01BC010830BB00FD01BA01B90178
:1006E8004E01171608007D08203E8600870181010B
:1006F80042011D1D802B812B8C2B7D08203E8600FE
:100708008701811440015D088A005C080A00833172
:1007180042019D1C902B912B9C2B7D08203E86002E
:100728008701011540015B088A005A080A008331D5
:100738007D08203E8600870101080319A42BA52BFC
:10074800AC2B410132088A0031080A008331AF2BF3
:1007580085310C2583310800F5007008F300F40199
:100768007308F7007408F800F601D82B71088600A2
:100778007208870001087707F70078080318780AD5
:10078800F8000130F1070030F23D01307802003006
:1007980003197702031CD12BD22BD62BFF30F7027B
:1007A8000030F83B0130F60775087602031CDD2B94
:1007B800DE2BBA2BF709F80977080800F900400181
:1007C8003B080319E82BE92BE32B4E019719ED2B76
:1007D800EE2BF22B790842019A00052C9711400163
:1007E8003D08303E86008701790881000130BD0749
:1007F80008303D02031C012C022C032CBD010130E2
:10080800BB024E01971508004001E700E801192CCA
:1008180068087B07860000307C3D8700010883312B
:10082800E223843101304001E80767086802031CAD
:100838001E2C1F2C0C2C7A08F0007C08F2007B0878
:10084800F10067088331B02384318331E223843196
:100858000800400139080319322C332C2D2C3A0892
:10086800203E860087010108B8003A08283E860025
:1008780087010108F0000130BA0708303A02031C6A
:10088800462C472C482CBA014E0117120130400162
:10089800B9024E01171670080800400143083F3995
:1008A800FA007908F000F1014430F2000030F3005A
:1008B8000830F4000030F50084317324843143306B
:1008C800F0000030F1000030F200F3000D30F400C9
:1008D8000030F5008431CB2484317A08080072088E
:1008E800F8007008F700862C780886008701010850
:1008F800F6000130F807770886008701760881003E
:100908000130F7070130F4020030F53B740A031D8B
:10091800912C750A031D912C922C782C0800083014
:1009280040013B020318992C9A2CAE2C3C08303E0F
:1009380086008701010842019A0001304001BC0786
:1009480008303C02031CA92CAA2CAB2CBC0101309A
:10095800BB07B02C4E0197110800F700F001F00A10
:1009680077088231DB228431023A031DBC2CBD2C6E
:10097800BF2C0030CA2C77083F3981317E21843161
:100988007706031DC82CC92CBD2C0130080070083F
:10099800F600D52C760886008701720881000130A0
:1009A800F6070130F4020030F53B740A031DE02C11
:1009B800750A031DE02CE12CCE2C0800F600730804
:1009C8004001E3007208E2007608E6007508E500D9
:1009D8007408E40086311A2684318531FC25843177
:1009E8008531B5258431080045304B019F00F93029
:1009F8009D009C014E018C1296164030F000063086
:100A0800F1008531C925843180304B019E000800F2
:100A18007D08283E860087014201190881000130BF
:100A2800FD0708307D02031C1A2D1B2D1C2DFD010E
:100A380001304001B90708008531562585318531D7
:100A4800C325853186310A2685318431F8248531DC
:100A580083313923853185319325853108008431E7
:100A68002D248531003A031D3A2D3B2D442D863126
:100A780038268531891C412D422D442D0130452DC4
:100A880000300800853120258531863106268531DC
:100A98008B170B1780315320853186313F268531DE
:100AA8004E2D3A28400198010C3092007E01B80181
:100AB800B901BA013730BB003F30BC0002307D01BC
:100AC800CB0008005030F900843151248531FB00F7
:100AD8007B030319702D712D722D752D82317322B0
:100AE800853108004E018C12400158085904031939
:100AF8007E2D7F2D842D59088A0058080A008531DB
:100B08000800F10071084001EC0000308531F7253C
:100B1800853100004001C0010130C1000800ED30FE
:100B2800F2008530F3006630F4000530F50001303E
:100B38008431E2248531080001304001C0076C0887
:100B48004002031CA82DA92DAB2DC001C10108002E
:100B580040013908031DB12DB32D0130B42D0030EB
:100B68000800A030F0000530F1008531C925853135
:100B78000800640080010131890BBE2D0034510149
:100B88009101053093009201080071084001D900D5
:100B98007008D800080071084001E1007008E00002
:100BA800080071084001DF007008DE0008007108C5
:100BB8004001DB007008DA00080071084001DD0020
:100BC8007008DC00080071084101B2007008B1002B
:100BD8000800013401340834A9340034F0007008E6
:100BE8004B019D000800F00070084B019C000800B4
:100BF80042011D164E011716080042011D124E0132
:100C08001712080086313C2686310800163050013C
:100C18008C000800400198169810080040019810B0
:100C28009812080040019814981208004001C00169
:100C3800C101080042011D121D16080085310C254E
:100C4800863108004B019E1308004B019E170800CF
:100C58004B011C08080042011E0808004001181634
:100C68000800400118120800400138080800143430
:0C0C780008000800080008000800080040
:020000040001F9
:04000E00CD3FE73FBC
:04001400FF1FFF3F8C
:00000001FF
