:020000040000FA
:0200000037289F
:100008007E1480314E01961E0A280B2813288C1E58
:100018000E280F2813288531AE25803135280B1F6F
:10002800162817283528971D1A281B2826288D1DBD
:100038001E281F282628400162088A0061080A0035
:1000480080313528171E29282A2835280D1E2D28E5
:100058002E283528400160088A005F080A00803190
:1000680035287E1009003828863173268031EF0044
:1000780020308400003085003B308531F525803103
:10008800A03084000030850008308531F5258031A6
:100098007E1040018E2D40014503031D542855282C
:1000A80050294408031D59285A2850290830C200ED
:1000B80050298531E4258031003A031964286528E0
:1000C800792914308531BD25803101304001C500C2
:1000D8000130C20079298531E4258031003A0319BD
:1000E80076287728792985316A258031013A031DD8
:1000F8007E287F28832802304001C20079290830F1
:100108004001C20079298531E4258031003A03197C
:100118008E288F287929843140248031553A031D4F
:1001280096289728832803304001C2007929853111
:10013800E4258031003A0319A228A32879298431BB
:10014800402480314001C60046088431E7248031CC
:10015800003A031DB028B128B2288328F001F00A1C
:10016800400146088331102380314001D0005003FC
:10017800031DBF28C028CB280230F0004608833171
:10018800102380314001D1000430C2007929863122
:100198003926803106304001C20079298531E425AD
:1001A8008031003A0319D928DA2879298431402482
:1001B80080314101A8004730A9000030AA00400161
:1001C800410841012907AB0000302A3DAC002B084B
:1001D80086002C0887002808810001304001C107EB
:1001E80051084102031CF928FA287929C101053070
:1001F800C20079298531E4258031003A031905299F
:10020800062979298431402480314001CF004608ED
:10021800F0004730F1000030F20051088331E82344
:10022800803140014F0603191A291B291C298328EC
:100238000730C2007929400146088231AC2280315A
:1002480007304001C200400166088A0065080A00BC
:1002580081318631462680314001C101C5014630D1
:10026800F0000030F1000030F200F3000D30F4002F
:100278000030F50085310125803142019E1C452959
:1002880046294C298631342680314001C20179291A
:1002980009304001C200792942084101A800A9019A
:1002A8002908003A0319592979292808003A031915
:1002B8005D28013A03196F28033A03198728013A80
:1002C80003199B28073A0319D228013A0319FE2873
:1002D800033A03191F29013A031927290F3A031969
:1002E8002D29013A031941297929080024304001B0
:1002F8005306031D80298129DA29A9293908F839E3
:100308000538B900B801C929F830B9053814B8104A
:10031800C9293908F8390138B900B8143810C92979
:100328003908F8390238B9008A293908F839033800
:10033800B900381591293908F8390438B9009D29C8
:100348003908F8390538B900C92955080A3A03198E
:100358008D29013A03199F291A3A03198229033A68
:1003680003198D29013A03199F295A3A0319882933
:10037800053A031994291D3A03198829DD3A031906
:100388009929183A03199929A42939080739053AE6
:100398000319CF29D029022A5408C0390319D529AD
:1003A800D629D829B815022AB811022A5303031DE1
:1003B800DE29DF29EC290C305506031DE429E5293F
:1003C800022A571DE829E929022AB901B801022A97
:1003D80011305306031DF129F229022A0C30550663
:1003E800031DF729F829022A07305705F0000730BE
:1003F8007006031D002A012A022AE929381C052A49
:10040800062A0A2A86316A2681310D2A86316D2606
:1004180081314001B81C112A122A162A86315E261B
:100428008131192A8631612681314001B81D1D2A82
:100438001E2A222A863164268131252A863167269A
:1004480081310800F1007108F200F2182C2A2E2AD6
:1004580001302F2A0030F0007218332A352A013073
:10046800362A00307006031D3A2A3C2A72173D2AA4
:1004780072137219402A422A0130432A0030F000D0
:10048800721B472A492A01304A2A00307006031D88
:100498004E2A502A7217512A7213721A542A562A4F
:1004A8000130572A0030F000721B5B2A5D2A0130A8
:1004B8005E2A00307006031D622A642A7217652AB4
:1004C8007213F219682A6A2A01306B2A0030F00088
:1004D800F2186F2A712A0130722A00307006031D43
:1004E800762A782AF217792AF213721A7C2A7E2A37
:1004F80001307F2A0030F000F21B832A852A013060
:10050800862A00307006031D8A2A8C2AF2178D2A43
:10051800F213F21A902A922A0130932A0030F0003E
:10052800F21B972A992A01309A2A00307006031D77
:100538009E2AA02AF217A12AF2130310F21F03140D
:100548000318A72AA92AF217AA2AF2137208080080
:100558004001EB006408EE006308ED003F30EB0556
:10056800EC01C72A6D0884006E08850000086B0638
:10057800031DBF2AC02AC12ACD2A0530ED07003045
:10058800EE3D0130EC0767086C02031CCC2ACD2A2B
:10059800B62A01306D0784006E080318013E8500F5
:1005A8000008D00002306D0784006E080318013E71
:1005B80085000008D1004730F0000030F10003301A
:1005C8006D0784006E080318013E8500003FF200A5
:1005D800013FF3005108E900EA016908F4006A08DC
:1005E800F5008431A924823140014608F0004730E3
:1005F800F1000030F20051088331E82382314001D4
:10060800CF004608F9004730FA000030FB005108D7
:100618008431642482310800F30040016408F60044
:100628006308F5003F30F305F4013B2B750884009F
:100638007608850000087306031D232B242B252B21
:100648005A2B0530F5070030F63D6708FF3EF100EC
:10065800FF3003180030F200740871067204031D9D
:10066800362B372B392B02306D2B0130F4076708F6
:100678007402031C402B412B1A2B5A2B750884003B
:100688007608850000086D2B013075078400760810
:100698000318013E850000086D2B023075078400A1
:1006A80076080318013E850000086D2B7008F100DC
:1006B800F2017208003A0319622B372B7108003ACD
:1006C8000319422B013A0319482B033A0319512BFA
:1006D800372B08004E011712AC30F0000330F10040
:1006E80086310D2683314E019711C930F000043050
:1006F800F100863107268331083042019F0090308F
:100708009D0024309E00FF309B0002309C00793011
:10071800F0000630F1008631192683314A30F000A6
:100728000630F1008631132683314E30F000063052
:10073800F10086311F2683314001BA01C001BF0193
:100748000830BE00BD01BC01BB014E0117160800F0
:1007580040013D08203E86008701810142011D1DA0
:10076800B62BB72BC22B40013D08203E86008701DF
:1007780081145E088A005D080A00833142019D1CCD
:10078800C62BC72BD32B40013D08203E860087018E
:100798000115410130088A002F080A008331400101
:1007A8003D08203E8600870101080319DC2BDD2B5C
:1007B800E42B41012E088A002D080A008331E72B1B
:1007C80085312E2583310800F5007008F300F40107
:1007D8007308F7007408F800F601102C71088600F9
:1007E8007208870001087707F70078080318780A65
:1007F800F8000130F1070030F23D01307802003096
:1008080003197702031C092C0A2C0E2CFF30F7025F
:100818000030F83B0130F60775087602031C152CEA
:10082800162CF22BF709F80977080800F0004001A8
:100838003E080319202C212C1B2C4E019719252C1E
:10084800262C2A2C700842019A003D2C9711400151
:100858004008303E86008701700881000130C007DB
:1008680008304002031C392C3A2C3B2CC0010130C3
:10087800BE024E019715080040013B080319452C9C
:10088800462C402C3C08203E860087010108BA000F
:100898003C08283E860087010108F0000130BC07AB
:1008A80008303C02031C592C5A2C5B2CBC014E010D
:1008B800171201304001BB024E01171670080800DC
:1008C800FC00FD01732C7D087A07860000307B3D13
:1008D8008700010884311A2484310130FD077C081F
:1008E8007D02031C782C792C672C7908F0007B0892
:1008F800F2007A08F1007C088331E82384318431DE
:100908001A2484310800400146083F39FA00790862
:10091800F000F1014730F2000030F3000830F40035
:100928000030F5008431A92484314630F0000030CD
:10093800F1000030F200F3000D30F4000030F50053
:100948008531012584317A0808007208F80070089A
:10095800F700BC2C7808860087010108F6000130F2
:10096800F807770886008701760881000130F707C5
:100978000130F4020030F53B740A031DC72C750AD8
:10098800031DC72CC82CAE2C0800083040013E02BD
:100998000318CF2CD02CE42C3F08303E860087016A
:1009A800010842019A0001304001BF0708303F02A8
:1009B800031CDF2CE02CE12CBF010130BE07E62C24
:1009C8004E0197110800F700F001F00A770883310B
:1009D80010238431023A031DF22CF32CF52C00303D
:1009E800002D77083F398231262284317706031D8E
:1009F800FE2CFF2CF32C013008007008F6000B2D9C
:100A0800760886008701720881000130F6070130F8
:100A1800F4020030F53B740A031D162D750A031DF8
:100A2800162D172D042D0800F60073084001E40068
:100A38007208E3007608E7007508E6007408E50028
:100A48008631462685318631342685318531ED2536
:100A58008531080040013D08283E86008701420193
:100A68001908810001304001BD0708303D02031C10
:100A78003E2D3F2D402DBD010130BB0708004530FC
:100A88004B019F00F9309D009C014E018C12961677
:100A98007830F0000630F10086310126853180304B
:100AA8004B019E00080085319E2585318531FB2547
:100AB800853186314226853185314325853183311B
:100AC8006E2385318531CB2585310800843140245A
:100AD8008531003A031D712D722D7B2D86317026CC
:100AE8008531891C782D792D7B2D01307C2D0030A6
:100AF80008005330F900843187248531FB00882DA4
:100B080081317A2185318D2D7B08013A0319842D95
:100B18008D2D080085315725853186313E26853152
:100B28008B170B1780314F20853186317726853119
:100B3800962D3728400198010C3092007E01B801AB
:100B4800B901BA013730BB003F30BC0002307D012B
:100B5800CB0008004E018C1240015B085C040319AD
:100B6800B62DB72DBC2D5C088A005B080A008531BC
:100B78000800F10071084001EF00003086312F268F
:100B8800853100004001C3010130C4000800253050
:100B9800F2008630F3007D30F4000530F5000130B6
:100BA800853118258531080001304001C3076F08D9
:100BB8004302031CE02DE12DE32DC301C40108000D
:100BC80040013B08031DE92DEB2D0130EC2D0030D1
:100BD8000800D830F0000530F10086310126853153
:100BE8000800640080010131890BF62D00345101A1
:100BF8009101053093009201080071084001DC0062
:100C08007008DB00080071084001E2007008E1008C
:100C1800080071084001E0007008DF000800710852
:100C28004101B0007008AF00080071084001DE0003
:100C38007008DD00080071084101AE007008AD00C1
:100C48000800013401340834A0340034F00070087E
:100C58004B019D000800F00070084B019C00080043
:100C680042011D164E011716080042011D124E01C1
:100C78001712080086317426863108001630500194
:100C88008C0008004001C301C401080042011D1284
:100C98001D16080085312E25863108004B019E134C
:100CA80008004B019E1708004B011C080800420170
:100CB8001E08080040019816080040019812080014
:100CC8004001181608004001181208004001981445
:100CD800080040019810080040013A080800143440
:0C0CE800080008000800080008000800D0
:020000040001F9
:04000E00CD3FE73FBC
:04001400FF1FFF3F8C
:00000001FF
