:020000040000FA
:020000003A289C
:100008007E14803100308600003087004E01961E35
:100018000E280F2817288C1E122813281728853118
:10002800B925803138280B1F1A281B283828971D16
:100038001E281F282A288D1D222823282A28400107
:1000480061088A0060080A0080313828171E2D28A8
:100058002E2838280D1E31283228382840015F08FC
:100068008A005E080A0080317E1009003B2886312C
:100078007E268031EC00FD012030840000308500B0
:100088003A30863100268031A9308400003085005E
:1000980008308631002680317E104001992D4001BC
:1000A8004403031D5828592854294308031D5D2873
:1000B8005E2854290830C10054298531EF25803144
:1000C800003A0319682869287D2914308531C82524
:1000D800803101304001C4000130C1007D298531E3
:1000E800EF258031003A03197A287B287D2985314C
:1000F80075258031013A031D82288328872802301C
:100108004001C1007D2908304001C1007D298531A9
:10011800EF258031003A0319922893287D298431EC
:100128006F248031553A031D9A289B28872803306D
:100138004001C1007D298531EF258031003A03193E
:10014800A628A7287D2984316F2480314001C50065
:1001580045088431F3248031003A031DB428B528BA
:10016800B6288728F001F00A4001450883311D238D
:1001780080314001CF004F03031DC328C428CF2876
:100188000230F000450883311D2380314001D00042
:100198000430C1007D298631442680310630400173
:1001A800C1007D298531EF258031003A0319DD280A
:1001B800DE287D2984316F2480314101A400463036
:1001C800A5000030A6004001400841012507A7000E
:1001D8000030263DA8002708860028088700240844
:1001E800810001304001C00750084002031CFD286F
:1001F800FE287D29C0010530C1007D298531EF2504
:100208008031003A031909290A297D2984316F248C
:1002180080314001CE004508F0004630F100003042
:10022800F20050088331F223803140014E06031951
:100238001E291F29202987280730C1007D29400150
:1002480045088231AE22803107304001C1004001AB
:1002580065088A0064080A00813186315126803198
:100268004001C001C4014530F0000030F100003009
:10027800F200F3000D30F4000030F50085310D2553
:10028800803142019E1C49294A29502986313F263E
:1002980080314001C1017D2909304001C1007D291B
:1002A80041084101A400A5012508003A03195D2968
:1002B8007D292408003A03196128013A0319732893
:1002C800033A03198B28013A03199F28073A03199F
:1002D800D628013A03190229033A03192329013AB6
:1002E80003192B290F3A03193129013A0319452912
:1002F8007D290800243040015206031D84298529E0
:10030800DC29AB29F830B905B801CB29F830B90593
:100318003814B810CB293908F8390138B900B8149D
:100328003810CB293908F8390238B9008C2939082E
:10033800F8390338B900381593293908F8390438D9
:10034800B9009F293908F8390538B900CB2954086C
:100358000A3A03198F29013A0319A1291A3A0319EC
:100368008629033A03198F29013A0319A1295A3A10
:1003780003198A29053A031996291D3A03198A2966
:10038800DD3A03199B29183A03199B29A62939082C
:100398000739053A0319D129D229042A5308C03943
:1003A8000319D729D829DA29B815042AB811042A33
:1003B8005203031DE029E129EE290C305406031DE0
:1003C800E629E729042A561DEA29EB29042AB90156
:1003D800B801042A11305206031DF329F429042A0E
:1003E8000C305406031DF929FA29042A073056054A
:1003F800F00007307006031D022A032A042AEB299D
:10040800381C072A082A0C2A8631752681310F2ABA
:100418008631782681314001B81C132A142A182AFB
:100428008631692681311B2A86316C26813140014B
:10043800B81D1F2A202A242A86316F268131272AAF
:100448008631722681310800F1007108F200F21835
:100458002E2A302A0130312A0030F0007218352A4D
:10046800372A0130382A00307006031D3C2A3E2AFC
:1004780072173F2A72137219422A442A0130452AF8
:100488000030F000721B492A4B2A01304C2A0030F8
:100498007006031D502A522A7217532A7213721AB1
:1004A800562A582A0130592A0030F000721B5D2A5A
:1004B8005F2A0130602A00307006031D642A662A0C
:1004C8007217672A7213F2196A2A6C2A01306D2A88
:1004D8000030F000F218712A732A0130742A0030B3
:1004E8007006031D782A7A2AF2177B2AF213721AE9
:1004F8007E2A802A0130812A0030F000F21B852AEA
:10050800872A0130882A00307006031D8C2A8E2A1B
:10051800F2178F2AF213F21A922A942A0130952A96
:100528000030F000F21B992A9B2A01309C2A0030E7
:100538007006031DA02AA22AF217A32AF213031099
:10054800F21F03140318A92AAB2AF217AC2AF213D4
:10055800720808004101A000400163084101A3009E
:10056800400162084101A2003F30A005A101CD2A47
:10057800220884002308850000082006031DC52AD8
:10058800C62AC72AD52A0530A2070030A33D013064
:10059800A1074001660841012102031CD42AD52A7B
:1005A800BC2A01302207840023080318013E850075
:1005B80000084001CF0002304101220784002308CF
:1005C8000318013E850000084001D0004630F000C5
:1005D8000030F1000330410122078400230803188A
:1005E800013E8500003FF200013FF3004001500842
:1005F800EA00EB016A08F4006B08F5008431B524C1
:10060800823140014508F0004630F1000030F20028
:1006180050088331F22382314001CE004508FA00A8
:100628004630FB000030FC00500884314A248231F7
:100638000800F30040016308F6006208F5003F3047
:10064800F305F401482B7508840076088500000836
:100658007306031D302B312B322B672B0530F50722
:100668000030F63D6608FF3EF100FF300318003009
:10067800F200740871067204031D432B442B462BA9
:1006880002307A2B0130F40766087402031C4D2BE4
:100698004E2B272B672B75088400760885000008E9
:1006A8007A2B01307507840076080318013E85000F
:1006B80000087A2B02307507840076080318013E7B
:1006C800850000087A2B7008F100F2017208003AE0
:1006D80003196F2B442B7108003A03194F2B013A69
:1006E8000319552B033A03195E2B442B08004E01BE
:1006F8001712B930F0000330F10086311826833123
:100708004E019711D530F0000430F10086311226E1
:100718008331083042019F0090309D0024309E00B4
:10072800FF309B0002309C008430F0000630F1005E
:100738008631242683315530F0000630F1008631A9
:100748001E2683315930F0000630F10086312A2602
:1007580083314001BA01BF01BE010830BD00FD016F
:10076800BC01BB014E01171608007D08203E86001B
:100778008701810142011D1DC22BC32BCE2B7D0891
:10078800203E86008701811440015D088A005C08CC
:100798000A00833142019D1CD22BD32BDE2B7D080E
:1007A800203E860087010115410134088A0033087C
:1007B8000A0083317D08203E86008701010803195D
:1007C800E62BE72BEE2B410132088A0031080A009C
:1007D8008331F12B85314E2583310800F5007008EF
:1007E800F300F4017308F7007408F800F6011A2CF6
:1007F800710886007208870001087707F7007808F3
:100808000318780AF8000130F1070030F23D013092
:100818007802003003197702031C132C142C182CAF
:10082800FF30F7020030F83B0130F6077508760212
:10083800031C1F2C202CFC2BF709F809770808004B
:10084800F90040013D0803192A2C2B2C252C4E01B8
:1008580097192F2C302C342C790842019A00472CF8
:10086800971140013F08303E8600870179088100D2
:100878000130BF0708303F02031C432C442C452C91
:10088800BF010130BD024E01971508004001E70085
:10089800E8015B2C68087B07860000307C3D8700F8
:1008A800010884312424843101304001E8076708B5
:1008B8006802031C602C612C4E2C7A08F0007C081E
:1008C800F2007B08F10067088331F2238431843118
:1008D80024248431080040013B080319742C752C2A
:1008E8006F2C3C08203E860087010108BA003C08AE
:1008F800283E860087010108F0000130BC07083057
:100908003C02031C882C892C8A2CBC014E0117122E
:1009180001304001BB024E01171670080800400163
:1009280045083F39FA007908F000F1014630F20035
:100938000030F3000830F4000030F5008431B524AD
:1009480084314530F0000030F1000030F200F3004F
:100958000D30F4000030F50085310D2584317A081A
:1009680008007208F8007008F700C82C780886009C
:1009780087010108F6000130F8077708860087012B
:10098800760881000130F7070130F4020030F53BAA
:10099800740A031DD32C750A031DD32CD42CBA2C2E
:1009A8000800083040013D020318DB2CDC2CF02C39
:1009B8003E08303E86008701010842019A00013056
:1009C8004001BE0708303E02031CEB2CEC2CED2C3A
:1009D800BE010130BD07F22C4E0197110800F70047
:1009E800F001F00A770883311D238431023A031D90
:1009F800FE2CFF2C012D00300C2D77083F39823159
:100A0800282284317706031D0A2D0B2DFF2C013077
:100A180008007008F600172D76088600870172080E
:100A280081000130F6070130F4020030F53B740A0A
:100A3800031D222D750A031D222D232D102D0800BC
:100A4800F60073084001E3007208E2007608E60049
:100A58007508E5007408E400863151268531863131
:100A68003F2685318531F8258531080045304B0111
:100A78009F00F9309D009C014E018C129616833020
:100A8800F0000630F10086310C26853180304B01AC
:100A98009E0008007D08283E86008701420119084B
:100AA80081000130FD0708307D02031C5C2D5D2D9F
:100AB8005E2DFD0101304001BB0708008531A925E5
:100AC800853186310626853186314D268531853139
:100AD8003A25853183317B2385318531D62585318A
:100AE800080084316F248531003A031D7C2D7D2D4B
:100AF800862D86317B268531891C832D842D862D74
:100B08000130872D003008005230F90084319324D9
:100B18008531FB00932D81317E218531982D7B080D
:100B2800013A03198F2D982D0800853162258531EA
:100B38008631492685318B170B1780315320853133
:100B4800863182268531A12D3A28400198010C3042
:100B580092007E01B801B901BA013730BB003F30BD
:100B6800BC0002307D01CB0008004E018C12400110
:100B78005A085B040319C12DC22DC72D5B088A00D2
:100B88005A080A0085310800F10071084001EC009C
:100B9800003086313A26853100004001C20101301B
:100BA800C30008003030F2008630F3008830F400CB
:100BB8000530F500013085312425853108000130E4
:100BC8004001C2076C084202031CEB2DEC2DEE2DF0
:100BD800C201C301080040013B08031DF42DF62D96
:100BE8000130F72D00300800E330F0000530F10047
:100BF80086310C2685310800640080010131890B9B
:100C0800012E003451019101053093009201080032
:100C180071084001DB007008DA0008007108400123
:100C2800E1007008E000080071084001DF0070086A
:100C3800DE00080071084101B4007008B300080024
:100C480071084001DD007008DC00080071084101EE
:100C5800B2007008B1000800013401340834A93426
:100C68000034F00070084B019D000800F000700887
:100C78004B019C00080042011D164E011716080082
:100C880042011D124E011712080086317F26863157
:100C98000800163050018C0008004001C201C30151
:100CA800080042011D121D16080085314E258631A7
:100CB80008004B019E1308004B019E1708004B01CA
:100CC8001C08080042011E08080040019816080088
:100CD8004001981208004001181608004001181237
:100CE80008004001981408004001981008004001CD
:100CF8003A08080014340800080008000800080032
:020D08000800E1
:020000040001F9
:04000E00CD3FE73FBC
:04001400FF1FFF3F8C
:00000001FF
