:020000040000FA
:0200000037289F
:100008007E1480314E01961E0A280B2813288C1E58
:100018000E280F2813288531AC25803135280B1F71
:10002800162817283528971D1A281B2826288D1DBD
:100038001E281F282628400162088A0061080A0035
:1000480080313528171E29282A2835280D1E2D28E5
:100058002E283528400160088A005F080A00803190
:1000680035287E1009003828863171268031EF0046
:1000780020308400003085003B308531F325803105
:10008800A03084000030850008308531F3258031A8
:100098007E1040018C2D40014503031D542855282E
:1000A80050294408031D59285A2850290830C200ED
:1000B80050298531E2258031003A031964286528E2
:1000C800792914308531BB25803101304001C500C4
:1000D8000130C20079298531E2258031003A0319BF
:1000E800762877287929853168258031013A031DDA
:1000F8007E287F28832802304001C20079290830F1
:100108004001C20079298531E2258031003A03197E
:100118008E288F28792984313E248031553A031D51
:1001280096289728832803304001C2007929853111
:10013800E2258031003A0319A228A32879298431BD
:100148003E2480314001C60046088431E5248031D0
:10015800003A031DB028B128B2288328F001F00A1C
:100168004001460883310E2380314001D0005003FE
:10017800031DBF28C028CB280230F0004608833171
:100188000E2380314001D1000430C2007929863124
:100198003726803106304001C20079298531E225B1
:1001A8008031003A0319D928DA28792984313E2484
:1001B80080314101A8004730A9000030AA00400161
:1001C800410841012907AB0000302A3DAC002B084B
:1001D80086002C0887002808810001304001C107EB
:1001E80051084102031CF928FA287929C101053070
:1001F800C20079298531E2258031003A03190529A1
:100208000629792984313E2480314001CF004608EF
:10021800F0004730F1000030F20051088331E62346
:10022800803140014F0603191A291B291C298328EC
:100238000730C2007929400146088231AA2280315C
:1002480007304001C200400166088A0065080A00BC
:1002580081318631442680314001C101C5014630D3
:10026800F0000030F1000030F200F3000D30F4002F
:100278000030F5008431FF24803142019E1C45295D
:1002880046294C298631322680314001C20179291C
:1002980009304001C200792942084101A800A9019A
:1002A8002908003A0319592979292808003A031915
:1002B8005D28013A03196F28033A03198728013A80
:1002C80003199B28073A0319D228013A0319FE2873
:1002D800033A03191F29013A031927290F3A031969
:1002E8002D29013A031941297929080024304001B0
:1002F8005306031D80298129D829A729F830B90573
:10030800B801C729F830B9053814B810C729390811
:10031800F8390138B900B8143810C7293908F8393C
:100328000238B90088293908F8390338B90038156E
:100338008F293908F8390438B9009B293908F83960
:100348000538B900C72955080A3A03198B29013A13
:1003580003199D291A3A03198229033A03198B298B
:10036800013A03199D295A3A03198629053A0319AE
:1003780092291D3A03198629DD3A03199729183A53
:1003880003199729A22939080739053A0319CD29EC
:10039800CE29002A5408C0390319D329D429D629CB
:1003A800B815002AB811002A5303031DDC29DD29DA
:1003B800EA290C305506031DE229E329002A571DB6
:1003C800E629E729002AB901B801002A11305306A5
:1003D800031DEF29F029002A0C305506031DF529C5
:1003E800F629002A07305705F00007307006031D6C
:1003F800FE29FF29002AE729381C032A042A082A8B
:100408008631682681310B2A86316B26813140017D
:10041800B81C0F2A102A142A86315C268131172A23
:1004280086315F2681314001B81D1B2A1C2A202AEB
:10043800863162268131232A86316526813108007A
:10044800F1007108F200F2182A2A2C2A01302D2A0C
:100458000030F0007218312A332A0130342A003073
:100468007006031D382A3A2A72173B2A721372192A
:100478003E2A402A0130412A0030F000721B452AEA
:10048800472A0130482A00307006031D4C2A4E2A9C
:1004980072174F2A7213721A522A542A0130552A97
:1004A8000030F000721B592A5B2A01305C2A0030A8
:1004B8007006031D602A622A7217632A7213F219E2
:1004C800662A682A0130692A0030F000F2186D2A7D
:1004D8006F2A0130702A00307006031D742A762AAC
:1004E800F217772AF213721A7A2A7C2A01307D2AA7
:1004F8000030F000F21B812A832A0130842A003060
:100508007006031D882A8A2AF2178B2AF213F21A18
:100518008E2A902A0130912A0030F000F21B952A89
:10052800972A0130982A00307006031D9C2A9E2ABB
:10053800F2179F2AF2130310F21F03140318A52AB7
:10054800A72AF217A82AF213720808004001EB0044
:100558006408EE006308ED003F30EB05EC01C52AA6
:100568006D0884006E08850000086B06031DBD2A0F
:10057800BE2ABF2ACB2A0530ED070030EE3D0130F8
:10058800EC0767086C02031CCA2ACB2AB42A01307C
:100598006D0784006E080318013E85000008D0002E
:1005A80002306D0784006E080318013E85000008BC
:1005B800D1004730F0000030F10003306D078400AF
:1005C8006E080318013E8500003FF200013FF3006A
:1005D8005108E900EA016908F4006A08F500843165
:1005E800A724823140014608F0004730F10000306E
:1005F800F20051088331E62382314001CF004608DA
:10060800F9004730FA000030FB00510884316224B9
:1006180082310800F30040016408F6006308F50021
:100628003F30F305F401392B7508840076088500FE
:1006380000087306031D212B222B232B582B053072
:10064800F5070030F63D6708FF3EF100FF3003185C
:100658000030F200740871067204031D342B352B28
:10066800372B02306B2B0130F40767087402031C28
:100678003E2B3F2B182B582B7508840076088500D5
:1006880000086B2B01307507840076080318013EBB
:10069800850000086B2B0230750784007608031864
:1006A800013E850000086B2B7008F100F20172080A
:1006B800003A0319602B352B7108003A0319402BB7
:1006C800013A0319462B033A03194F2B352B08001F
:1006D8004E011712AA30F0000330F10086310B26C4
:1006E80083314E019711C730F0000430F100863194
:1006F80005268331083042019F0090309D00243048
:100708009E00FF309B0002309C007730F0000630DE
:10071800F1008631172683314830F0000630F100A9
:100728008631112683314C30F0000630F1008631D5
:100738001D2683314001BA01C001BF010830BE0047
:10074800BD01BC01BB014E011716080040013D0860
:10075800203E86008701810142011D1DB42BB52B67
:10076800C02B40013D08203E8600870181145E08A9
:100778008A005D080A00833142019D1CC42BC52BE9
:10078800D12B40013D08203E86008701011541011B
:1007980030088A002F080A00833140013D08203EB6
:1007A8008600870101080319DA2BDB2BE22B4101B4
:1007B8002E088A002D080A008331E52B85312C2567
:1007C80083310800F5007008F300F4017308F7009E
:1007D8007408F800F6010E2C71088600720887006C
:1007E80001087707F70078080318780AF80001303D
:1007F800F1070030F23D013078020030031977022A
:10080800031C072C082C0C2CFF30F7020030F83B97
:100818000130F60775087602031C132C142CF02BF4
:10082800F709F80977080800F00040013E080319A5
:100838001E2C1F2C192C4E019719232C242C282CE4
:10084800700842019A003B2C971140014008303E45
:1008580086008701700881000130C0070830400217
:10086800031C372C382C392CC0010130BE024E0134
:100878009715080040013B080319432C442C3E2CD3
:100888003C08203E860087010108BA003C08283E43
:10089800860087010108F0000130BC0708303C02DF
:1008A800031C572C582C592CBC014E01171201302F
:1008B8004001BB024E01171670080800FC00FD013C
:1008C800712C7D087A07860000307B3D870001087F
:1008D8008431182484310130FD077C087D02031C13
:1008E800762C772C652C7908F0007B08F2007A08C2
:1008F800F1007C088331E623843184311824843163
:100908000800400146083F39FA007908F000F10173
:100918004730F2000030F3000830F4000030F500F2
:100928008431A72484314630F0000030F1000030D3
:10093800F200F3000D30F4000030F5008431FF249C
:1009480084317A0808007208F8007008F700BA2C99
:100958007808860087010108F6000130F807770853
:1009680086008701760881000130F7070130F4021C
:100978000030F53B740A031DC52C750A031DC52CF0
:10098800C62CAC2C0800083040013E020318CD2CC0
:10099800CE2CE22C3F08303E860087010108420138
:1009A8009A0001304001BF0708303F02031CDD2CCC
:1009B800DE2CDF2CBF010130BE07E42C4E0197115D
:1009C8000800F700F001F00A770883310E2384311C
:1009D800023A031DF02CF12CF32C0030FE2C770882
:1009E8003F398231242284317706031DFC2CFD2CEB
:1009F800F12C013008007008F600092D76088600F1
:100A08008701720881000130F6070130F4020030D6
:100A1800F53B740A031D142D750A031D142D152D9D
:100A2800022D0800F60073084001E4007208E30094
:100A38007608E7007508E6007408E5008631442664
:100A480085318631322685318531EB25853108009F
:100A580040013D08283E86008701420119088100AF
:100A680001304001BD0708303D02031C3C2D3D2DDF
:100A78003E2DBD010130BB07080045304B019F00EA
:100A8800F9309D009C014E018C1296167630F000CC
:100A98000630F1008531FF25853180304B019E00FD
:100AA800080085319C2585318531F92585318631C8
:100AB8004026853185314125853183316C23853147
:100AC8008531C9258531080084313E248531003AB5
:100AD800031D6F2D702D792D86316E268531891C69
:100AE800762D772D792D01307A2D0030080053307E
:100AF800F900843185248531FB00862D81317A21E6
:100B080085318B2D7B08013A0319822D8B2D080026
:100B180085315525853186313C2685318B170B1754
:100B280080314F208531863175268531942D3728BF
:100B3800400198010C3092007E01B801B901BA0158
:100B48003730BB003F30BC0002307D01CB000800CD
:100B58004E018C1240015B085C040319B42DB52DBD
:100B6800BA2D5C088A005B080A0085310800F1008C
:100B780071084001EF00003086312D2685310000D4
:100B88004001C3010130C40008002330F200863060
:100B9800F3007B30F4000530F5000130853116256F
:100BA8008531080001304001C3076F084302031C68
:100BB800DE2DDF2DE12DC301C401080040013B08F3
:100BC800031DE72DE92D0130EA2D00300800D6304D
:100BD800F0000530F1008531FF25853108006400FB
:100BE80080010131890BF42D003451019101053048
:100BF80093009201080071084001DC007008DB00D6
:100C0800080071084001E2007008E100080071085E
:100C18004001E0007008DF00080071084101B000E1
:100C28007008AF00080071084001DE007008DD00A0
:100C3800080071084101AE007008AD0008000134D9
:100C480001340834A0340034F00070084B019D00D2
:100C58000800F00070084B019C00080042011D16B6
:100C68004E011716080042011D124E011712080006
:100C78008631722686310800163050018C00080033
:100C88004001C301C401080042011D121D160800DD
:100C980085312C25863108004B019E1308004B0135
:100CA8009E1708004B011C08080042011E08080096
:100CB80040019816080040019812080040011816D3
:100CC800080040011812080040019814080040016B
:100CD8009810080040013A08080014340800080079
:080CE8000800080008000800E4
:020000040001F9
:04000E00CD3FE73FBC
:04001400FF1FFF3F8C
:00000001FF
