:020000040000FA
:0200000037289F
:100008007E1480314E01961E0A280B2813288C1E58
:100018000E280F2813288531BF25803135280B1F5E
:10002800162817283528971D1A281B2826288D1DBD
:100038001E281F28262840015E088A005D080A003D
:1000480080313528171E29282A2835280D1E2D28E5
:100058002E28352840015C088A005B080A00803198
:1000680035287E100900382886317E268031ED003B
:1000780020308400003085003330863110268031EE
:10008800A030840000308500083086311026803189
:100098007E104001F52D40014303031D54285528C7
:1000A8005F294208031D59285A285F290830C000D3
:1000B8005F298531FF258031003A031964286528B6
:1000C800882914308531DB25803101304001C30097
:1000D8000130C00088298531FF258031003A031995
:1000E8007628772888298531AC258031013A031D87
:1000F8007E287F28832802304001C00088290830E4
:100108004001C00088298531FF258031003A031954
:100118008E288F28882984316F248031553A031D11
:1001280096289728832803304001C0008829853104
:10013800FF258031003A0319A228A3288829843191
:100148006F2480314001C60046088531162580316C
:10015800003A031DB028B128B2288328F001F00A1C
:10016800400146088331412380314001D0005003CB
:10017800031DBF28C028CB280230F0004608833171
:10018800412380314001D1000430C00088298631E4
:100198005426803106304001C00088298531FF256A
:1001A8008031003A0319D928DA28882984316F2444
:1001B80080314101A8004730A9000030AA00400161
:1001C8003F0841012907AB0000302A3DAC002B084D
:1001D80086002C0887002808810040015108410149
:1001E800A800A901A81BA90301304001BF074101CC
:1001F8002908803A803C031D0429280840013F0251
:10020800031C0729082988294001BF010530C000BF
:1002180088298531FF258031003A031914291529C9
:10022800882984316F2480314001CF004608F000CE
:100238004730F1000030F200510884311724803132
:1002480040014F06031929292A292B298328073019
:10025800C0008829400146088231DF2280310730FA
:100268004001C000400162088A0061080A0081312B
:100278008631452680314001BF01C3014630F00078
:100288000030F1000030F200F3000D30F4000030CF
:10029800F50085313025803142019E1C54295529AD
:1002A8005B2986314F2680314001C00188290930F9
:1002B8004001C000882940084101A800A901290877
:1002C800003A0319682988292808003A03195D2883
:1002D800013A03196F28033A03198728013A0319C9
:1002E8009B28073A0319D228013A03190D29033A22
:1002F80003192E29013A031936290F3A03193C2903
:10030800013A03195029882908006530F900843119
:10031800B62481314001E400C501C4010C2A4930EA
:1003280067060319982999299F2951306706031DE3
:100338009E299F29A329F830C5054414EF290A30BE
:1003480067060319A829A929B529143067060319CE
:10035800AE29AF29B52912306706031DB429B5297E
:10036800BB294508F8390138C500C414EF298C3079
:1003780067060319C029C129CD29943067060319D6
:10038800C629C729CD29AC306706031DCC29CD293C
:10039800D3294508F8390338C5004415B9294C3024
:1003A8006706031DD829D929DE294508F8390238F6
:1003B800C500A1290B3067060319E329E429EA29B6
:1003C80013306706031DE929EA29EF294508F8399A
:1003D8000438C500D129E61FF229F329F629C515E5
:1003E800C415FC29661FF929FA29FC294517C415E3
:1003F800661EFF29002A022A4516C416E61E052A8B
:10040800062A112AC5164417112AC501C401112A42
:100418006408013A03199329092A441C142A152A45
:10042800192A8631752681311C2A86317826813130
:100438004001C41C202A212A252A863169268131B7
:10044800282A86316C2681314001441D2C2A2D2A08
:10045800312A863181268131342A863182268131BA
:100468004001C41D382A392A3D2A86316F26813138
:10047800402A8631722681314001C41E442A452A09
:10048800492A8631832681314C2A86318426813156
:100498004001441F502A512A552A86317F2681312E
:1004A800582A8631802681310800F1007108F2004F
:1004B800F2185F2A612A0130622A0030F0007218AF
:1004C800662A682A0130692A00307006031D6D2AE1
:1004D8006F2A7217702A72137219732A752A0130DB
:1004E800762A0030F000721B7A2A7C2A01307D2A95
:1004F80000307006031D812A832A7217842A72131A
:10050800721A872A892A01308A2A0030F000721B61
:100518008E2A902A0130912A00307006031D952AF0
:10052800972A7217982A7213F2199B2A9D2A01306A
:100538009E2A0030F000F218A22AA42A0130A52A27
:1005480000307006031DA92AAB2AF217AC2AF21351
:10055800721AAF2AB12A0130B22A0030F000F21B19
:10056800B62AB82A0130B92A00307006031DBD2A00
:10057800BF2AF217C02AF213F21AC32AC52A013079
:10058800C62A0030F000F21BCA2ACC2A0130CD2A34
:1005980000307006031DD12AD32AF217D42AF21389
:1005A8000310F21F03140318DA2ADC2AF217DD2AD3
:1005B800F213720808004001E5006008E8005F08CF
:1005C800E7003F30E505E601FA2A67088400680875
:1005D800850000086506031DF22AF32AF42A002B79
:1005E8000530E7070030E83D0130E607630866029A
:1005F800031CFF2A002BE92A0130670784006808DA
:100608000318013E85000008D00002306707840007
:1006180068080318013E85000008D1004730F00043
:100628000030F10003306707840068080318013EB2
:100638008500003FF200013FF3005108F400F50186
:10064800F41BF5038431D824823140014608F000B8
:100658004730F1000030F20051088431172482310C
:100668004001CF004608F9004730FA000030FB008F
:1006780051088431932482310800F3004001600856
:10068800F6005F08F5003F30F305F4016C2B7508A0
:1006980084007608850000087306031D542B552B2B
:1006A800562B8B2B0530F5070030F63D6308FF3ECF
:1006B800F100FF3003180030F2007408710672046C
:1006C800031D672B682B6A2B02309E2B0130F40721
:1006D80063087402031C712B722B4B2B8B2B750830
:1006E80084007608850000089E2B01307507840079
:1006F80076080318013E850000089E2B0230750716
:10070800840076080318013E850000089E2B7008B7
:10071800F100F2017208003A0319932B682B710853
:10072800003A0319732B013A0319792B033A031979
:10073800822B682B08004E011712DD30F0000330C1
:10074800F1008631282683314E019711F830F000E8
:100758000430F100863122268331093042019F009E
:1007680090309D0024309E00FF309B0002309C009A
:100778008630F0000630F1008631342683315E3051
:10078800F0000630F10086312E2683316230F00009
:100798000630F10086313A2683314001B801BE01A6
:1007A800BD010830BC00BB01BA01B9014E011716E2
:1007B800080040013B08203E860087018101420174
:1007C8001D1DE72BE82BF32B40013B08203E86003C
:1007D800870181145A088A0059080A0083314201A6
:1007E8009D1CF72BF82B032C40013B08203E86006C
:1007F8008701011558088A0057080A00843140010A
:100808003B08203E86008701010803190C2C0D2C9B
:10081800132C56088A0055080A008431162C853195
:100828005D2583310800F5007008F300F4017308B2
:10083800F7007408F800F6013F2C7108860072086A
:10084800870001087707F70078080318780AF80086
:100858000130F1070030F23D013078020030031911
:100868007702031C382C392C3D2CFF30F70200305E
:10087800F83B0130F60775087602031C442C452C1A
:10088800212CF709F80977080800F00040013C0816
:1008980003194F2C502C4A2C4E019719542C552CC7
:1008A800592C700842019A006C2C971140013E089F
:1008B800303E86008701700881000130BE0708308D
:1008C8003E02031C682C692C6A2CBE010130BC0254
:1008D8004E0197150800400139080319742C752C2E
:1008E8006F2C3A08203E860087010108B8003A08B4
:1008F800283E860087010108F0000130BA07083059
:100908003A02031C882C892C8A2CBA014E01171232
:1009180001304001B9024E01171670080800FC00AA
:10092800FD01A22C7D087A07860000307B3D8700F8
:1009380001088431492484310130FD077C087D0297
:10094800031CA72CA82C962C7908F0007B08F20031
:100958007A08F1007C0884311724843184314924D1
:1009680084310800400146083F39FA007908F00050
:10097800F1014730F2000030F3000830F400003095
:10098800F5008431D82484314630F0000030F1007D
:100998000030F200F3000D30F4000030F50085312E
:1009A800302584317A0808007208F8007008F700CA
:1009B800EB2C7808860087010108F6000130F8075B
:1009C800770886008701760881000130F707013033
:1009D800F4020030F53B740A031DF62C750A031D5A
:1009E800F62CF72CDD2C0800083040013C020318D7
:1009F800FE2CFF2C132D3D08303E86008701010890
:100A080042019A0001304001BD0708303D02031C35
:100A18000E2D0F2D102DBD010130BC07152D4E01D7
:100A280097110800F700F001F00A77088331412395
:100A38008531023A031D212D222D242D00302F2D22
:100A480077083F398231592285317706031D2D2DCC
:100A58002E2D222D013008007008F6003A2D760858
:100A680086008701720881000130F6070130F40220
:100A78000030F53B740A031D452D750A031D452DED
:100A8800462D332D0800F60073084001E000720877
:100A9800DF007608E3007508E2007408E10086319B
:100AA8004526853186314F268531863108268531A0
:100AB800080040013B08283E8600870142011908CA
:100AC800810001304001BB0708303B02031C6D2D3B
:100AD8006E2D6F2DBB010130B907080045304B0161
:100AE8009F00F9309D009C014E018C1296168530AE
:100AF800F0000630F10086311C26853180304B012C
:100B08009E00080085319925853186311626853164
:100B180086316626853185317225853183319F235B
:100B280085318531CE2585310800400198010C308A
:100B380092007E01B801B901BA013730BB003F30DD
:100B4800BC0002307D01CB0005307E01900008001A
:100B580084316F248531003A031DB32DB42DBD2D8A
:100B680086317B268531891CBA2DBB2DBD2D0130E0
:100B7800BE2D003008004E018C1240015308540469
:100B88000319C72DC82DCD2D54088A0053080A0013
:100B9800853108004030F2008630F3008930F400D7
:100BA8000130F50001308531472585310800F10015
:100BB80071084001ED00003086314A268531000079
:100BC80001304001C200080001304001C1076D0832
:100BD8004102031CF02DF12DF42D86315926853163
:100BE80008008531862585318B170B1780314F20FA
:100BF8008531FA2D372840013908031D042E062EA9
:100C08000130072E00300800E830F0000530F10010
:100C180086311C2686310800640080010131890B69
:100C2800112E003451019101053093009201080002
:100C380071084001D4007008D30008007108400111
:100C4800DE007008DD00080071084001DC00700853
:100C5800DB00080071084001D8007008D7000800C0
:100C680071084001DA007008D900080071084001D5
:100C7800D6007008D5000800013401340834A034C7
:100C8800003400004001C101C2010800F0007008F2
:100C98004B019C00080042011D164E011716080062
:100CA80042011D124E011712080000004001C10147
:100CB800C201080042011D121D16080085315D257C
:100CC8008631080050018C01080040019816080080
:100CD8004001981208004001181608004001181237
:100CE80008004001981408004001981008004001CD
:100CF800380808000A34080008000800080008003E
:060D0800080008000800CD
:020000040001F9
:04000E00CD3FE73FBC
:04001400FF3FFF3F6C
:00000001FF
