:0200000037289F
:100008007E1480314E01961E0A280B2813288C1E58
:100018000E280F28132885316E25803135280B1FAF
:10002800162817283528971D1A281B2826288D1DBD
:100038001E281F28262840015D088A005C080A003F
:1000480080313528171E29282A2835280D1E2D28E5
:100058002E28352840015B088A005A080A0080319A
:1000680035287E1009003828863131268031ED0088
:10007800203084000030850034308531B42580314B
:10008800A03084000030850008308531B4258031E7
:100098007E1040015E2D40014303031D542855285E
:1000A80050294208031D59285A2850290830C000F1
:1000B80050298531A3258031003A03196428652821
:1000C8007929143085318A25803101304001C300F7
:1000D8000130C00079298531A3258031003A031900
:1000E80076287728792985314B258031013A031DF7
:1000F8007E287F28832802304001C00079290830F3
:100108004001C00079298531A3258031003A0319BF
:100118008E288F28792984310E248031553A031D81
:1001280096289728832803304001C0007929853113
:10013800A3258031003A0319A228A32879298431FC
:100148000E2480314001C70047088431B52480312E
:10015800003A031DB028B128B2288328F001F00A1C
:10016800400147088231DF2280314001D10051032C
:10017800031DBF28C028CB280230F0004708823171
:10018800DF2280314001D2000430C0007929853156
:10019800F825803106304001C00079298531A32532
:1001A8008031003A0319D928DA28792984310E24B4
:1001B80080314101A8004830A9000030AA00400160
:1001C8003F0841012907AB0000302A3DAC002B084D
:1001D80086002C0887002808810001304001BF07ED
:1001E80052083F02031CF928FA287929BF01053073
:1001F800C00079298531A3258031003A03190529E2
:100208000629792984310E2480314001D00047081D
:10021800F0004830F1000030F20052088331B62374
:1002280080314001500603191A291B291C298328EB
:100238000730C00079294001470882317B2280318C
:1002480007304001C000400161088A0060080A00C8
:1002580081318631012680314001BF01C301473019
:10026800F0000030F1000030F200F3000D30F4002F
:100278000030F5008431CF24803142019E1C45298D
:1002880046294C298531F32580314001C00179295F
:1002980009304001C000792940084101A800A9019E
:1002A8002908003A0319592979292808003A031915
:1002B8005D28013A03196F28033A03198728013A80
:1002C80003199B28073A0319D228013A0319FE2873
:1002D800033A03191F29013A031927290F3A031969
:1002E8002D29013A0319412979290800F1007108DB
:1002F800F200F21880298229013083290030F000A9
:1003080072188729892901308A2900307006031D4F
:100318008E29902972179129721372199429962996
:10032800013097290030F000721B9B299D2901306C
:100338009E2900307006031DA229A4297217A52939
:100348007213721AA829AA290130AB290030F000CB
:10035800721BAF29B1290130B22900307006031D84
:10036800B629B8297217B9297213F219BC29BE29FE
:100378000130BF290030F000F218C329C529013027
:10038800C62900307006031DCA29CC29F217CD29C9
:10039800F213721AD029D2290130D3290030F00083
:1003A800F21BD729D9290130DA2900307006031D3C
:1003B800DE29E029F217E129F213F21AE429E629E5
:1003C8000130E7290030F000F21BEB29ED2901305C
:1003D800EE2900307006031DF229F429F217F529D9
:1003E800F2130310F21F03140318FB29FD29F21757
:1003F800FE29F213720808006330F900843155248D
:1004080082314001EB004508EC004F2A2430630696
:10041800031D0F2A102A3E2AE41B132A142A182A1D
:10042800641F172A182A1B2AC615EC151D2AC6117F
:10043800EC11651F202A212A2C2A07306705FB00AA
:1004480007307B06031D292A2A2A2C2A6C142D2AF8
:100458006C10E81E302A312A3C2A07306705FB0059
:1004680007307B06031D392A3A2A3C2AEC14542A01
:10047800EC10542A6303031D422A432A542A0730E6
:100488006705FB0007307B06031D4B2A4C2A542ABC
:10049800C601EC01542A6B08013A03190A2A542AA6
:1004A8006C1C572A582A5C2A8631282682315F2AF2
:1004B80086312B2682314001EC1C632A642A682A83
:1004C80086311C2682316B2A86311F2682314001F3
:1004D800EC1D6F2A702A742A863122268231772AE7
:1004E80086312526823140016C08C500080040018C
:1004F800E6005F08E9005E08E8003F30E605E7012E
:10050800962A680884006908850000086606031DA5
:100518008E2A8F2A902A9C2A0530E8070030E93D68
:100528000130E70762086702031C9B2A9C2A852A78
:1005380001306807840069080318013E8500000837
:10054800D10002306807840069080318013E85005D
:100558000008D2004830F0000030F100033068078E
:10056800840069080318013E8500003FF200013F3E
:10057800F3005208E400E5016408F4006508F5009A
:1005880084317724823140014708F0004830F10077
:100598000030F20052088331B62382314001D00086
:1005A8004708F9004830FA000030FB00520884314F
:1005B800322482310800F30040015F08F6005E082B
:1005C800F5003F30F305F4010A2B7508840076081E
:1005D800850000087306031DF22AF32AF42A292B42
:1005E8000530F5070030F63D6208FF3EF100FF30A8
:1005F80003180030F200740871067204031D052BFD
:10060800062B082B02303C2B0130F40762087402D9
:10061800031C0F2B102BE92A292B75088400760858
:10062800850000083C2B0130750784007608031804
:10063800013E850000083C2B0230750784007608CF
:100648000318013E850000083C2B7008F100F201F8
:100658007208003A0319312B062B7108003A031966
:10066800112B013A0319172B033A0319202B062BD8
:1006780008004E0117127B30F0000330F10085317D
:10068800CC2583314E0197119730F0000430F100EA
:100698008531C6258331093042019F0090309D0085
:1006A80024309E00FF309B0002309C003730F00061
:1006B8000630F1008531D82583310530F000063049
:1006C800F1008531D22583310930F0000630F10080
:1006D8008531DE2583314001B801BE01BD010830F6
:1006E800BC00BB01BA01B9014E0117160800400150
:1006F8003B08203E86008701810142011D1D852B94
:10070800862B912B40013B08203E860087018114EF
:1007180059088A0058080A00833142019D1C952B0C
:10072800962BA12B40013B08203E8600870101152E
:1007380057088A0056080A00833140013B08203ECA
:100748008600870101080319AA2BAB2BB22B4101A4
:100758002E088A002D080A008331B52B8431FC2429
:1007680083310800F5007008F300F4017308F700FE
:100778007408F800F601DE2B7108860072088700FD
:1007880001087707F70078080318780AF80001309D
:10079800F1070030F23D013078020030031977028A
:1007A800031CD72BD82BDC2BFF30F7020030F83B8B
:1007B8000130F60775087602031CE32BE42BC02BE7
:1007C800F709F80977080800F00040013C08031908
:1007D800EE2BEF2BE92B4E019719F32BF42BF82B6B
:1007E800700842019A000B2C971140013E08303ED8
:1007F80086008701700881000130BE0708303E027C
:10080800031C072C082C092CBE010130BC024E0128
:1008180097150800400139080319132C142C0E2CC5
:100828003A08203E860087010108B8003A08283EA9
:10083800860087010108F0000130BA0708303A0243
:10084800031C272C282C292CBA014E011712013021
:100858004001B9024E01171670080800FC00FD019E
:10086800412C7D087A07860000307B3D870001080F
:100878008331E82384310130FD077C087D02031CA5
:10088800462C472C352C7908F0007B08F2007A08B2
:10089800F1007C088331B62384318331E823843125
:1008A8000800400147083F39FA007908F000F101D3
:1008B8004830F2000030F3000830F4000030F50052
:1008C8008431772484314730F0000030F100003063
:1008D800F200F3000D30F4000030F5008431CF242D
:1008E80084317A0808007208F8007008F7008A2C2A
:1008F8007808860087010108F6000130F8077708B4
:1009080086008701760881000130F7070130F4027C
:100918000030F53B740A031D952C750A031D952CB0
:10092800962C7C2C0800083040013C0203189D2CB2
:100938009E2CB22C3D08303E8600870101084201FA
:100948009A0001304001BD0708303D02031CAD2C60
:10095800AE2CAF2CBD010130BC07B42C4E01971151
:100968000800F700F001F00A77088231DF228431AD
:10097800023A031DC02CC12CC32C0030CE2C7708A2
:100988003F3981317A2184317706031DCC2CCD2C57
:10099800C12C013008007008F600D92C76088600B2
:1009A8008701720881000130F6070130F402003037
:1009B800F53B740A031DE42C750A031DE42CE52C91
:1009C800D22C0800F60073084001DF007208DE0030
:1009D8007608E2007508E1007408E0008631012617
:1009E80084318531F32584318531AC258431080083
:1009F80040013B08283E8600870142011908810012
:100A080001304001BB0708303B02031C0C2D0D2DA3
:100A18000E2DBB010130B907080045304B019F007E
:100A2800F9309D009C014E018C1296163630F0006C
:100A38000630F1008531C025853180304B019E009C
:100A480008008531382585318531BA2585318631CB
:100A58001926853185311125853183313D2385312D
:100A680085317D2585310800400198010C309200C0
:100A78007E01B801B901BA013730BB003F30BC0074
:100A880002307D01CB0005307E01900008008431E2
:100A98000E248531003A031D522D532D5C2D8631CD
:100AA8002E268531891C592D5A2D5C2D01305D2D3E
:100AB800003008008531252585318531FD258531B2
:100AC8008B170B1780314F208531863135268531BC
:100AD800662D37284E018C1240015408550403191D
:100AE800762D772D7C2D55088A0054080A0085310B
:100AF8000800E430F2008530F3000030F4000230E2
:100B0800F50001308431E62485310800F1007108D0
:100B18004001ED0000308531EE25853100000130BF
:100B28004001C200080001304001C1076D084102C0
:100B3800031C9F2DA02DA22DC101C2010800400158
:100B48003908031DA82DAA2D0130AB2D003008004F
:100B58009730F0000530F1008531C0258531080057
:100B6800640080010131890BB52D003451019101D8
:100B7800053093009201080071084001D500700803
:100B8800D400080071084001DD007008DC0008008E
:100B980071084001DB007008DA00080071084001A4
:100BA800D7007008D600080071084001D900700805
:100BB800D800080071084101AE007008AD000800B7
:100BC800013401340834A0340034F00070084B01BB
:100BD8009D000800F00070084B019C0008004201CD
:100BE8001D164E011716080042011D124E0117125C
:100BF800080086313226853108004001C101C20152
:100C0800080042011D121D1608008431FC2486319B
:100C180008004B019E1308004B019E1708004B016A
:100C28001C08080042011E08080050018C01080039
:100C38004001981608004001981208004001181653
:100C480008004001181208004001981408004001EB
:100C5800981008004001380808000A340800080005
:080C6800080008000800080064
:020000040001F9
:08000000FF3FFF3FFF3FFF3F00
:0A000E00CD3FE73FFF3FFF3FFF3FFC
:00000001FF
