:020000040000FA
:0200000037289F
:100008007E1480314E01961E0A280B2813288C1E58
:100018000E280F28132885316A25803135280B1FB3
:10002800162817283528971D1A281B2826288D1DBD
:100038001E281F28262840015F088A005E080A003B
:1000480080313528171E29282A2835280D1E2D28E5
:100058002E28352840015D088A005C080A00803196
:1000680035287E1009003828863129268031EE008F
:10007800203084000030850034308531BB25803144
:10008800A03084000030850008308531BB258031E0
:100098007E104001A02D40014303031D542855281C
:1000A8005F294208031D59285A285F290830C000D3
:1000B8005F298531AA258031003A0319642865280B
:1000C8008829143085318625803101304001C300EC
:1000D8000130C00088298531AA258031003A0319EA
:1000E800762877288829853157258031013A031DDC
:1000F8007E287F28832802304001C00088290830E4
:100108004001C00088298531AA258031003A0319A9
:100118008E288F28882984311A248031553A031D66
:1001280096289728832803304001C0008829853104
:10013800AA258031003A0319A228A32888298431E6
:100148001A2480314001C70047088431C124803116
:10015800003A031DB028B128B2288328F001F00A1C
:10016800400147088231EC2280314001D10051031F
:10017800031DBF28C028CB280230F0004708823171
:10018800EC2280314001D2000430C000882985313A
:10019800FF25803106304001C00088298531AA2515
:1001A8008031003A0319D928DA28882984311A2499
:1001B80080314101A8004830A9000030AA00400160
:1001C8003F0841012907AB0000302A3DAC002B084D
:1001D80086002C0887002808810040015208410148
:1001E800A800A901A81BA90301304001BF074101CC
:1001F8002908803A803C031D0429280840013F0251
:10020800031C0729082988294001BF010530C000BF
:1002180088298531AA258031003A0319142915291E
:10022800882984311A2480314001D0004708F00021
:100238004830F1000030F20052088331C223803187
:1002480040015006031929292A292B298328073018
:10025800C00088294001470882318A22803107304E
:100268004001C000400163088A0062080A00813129
:100278008531F02580314001BF01C3014730F000CE
:100288000030F1000030F200F3000D30F4000030CF
:10029800F5008431DB24803142019E1C5429552904
:1002A8005B298531FA2580314001C0018829093050
:1002B8004001C000882940084101A800A901290877
:1002C800003A0319682988292808003A03195D2883
:1002D800013A03196F28033A03198728013A0319C9
:1002E8009B28073A0319D228013A03190D29033A22
:1002F80003192E29013A031936290F3A03193C2903
:10030800013A0319502988290800F1007108F20000
:10031800F2188F299129013092290030F0007218C3
:10032800962998290130992900307006031D9D29C6
:100338009F297217A02972137219A329A5290130C0
:10034800A6290030F000721BAA29AC290130AD297A
:1003580000307006031DB129B3297217B42972132E
:10036800721AB729B9290130BA290030F000721B76
:10037800BE29C0290130C12900307006031DC529D6
:10038800C7297217C8297213F219CB29CD29013050
:10039800CE290030F000F218D229D4290130D5290D
:1003A80000307006031DD929DB29F217DC29F21366
:1003B800721ADF29E1290130E2290030F000F21B2E
:1003C800E629E8290130E92900307006031DED29E6
:1003D800EF29F217F029F213F21AF329F52901305F
:1003E800F6290030F000F21BFA29FC290130FD291A
:1003F80000307006031D012A032AF217042AF2139B
:100408000310F21F031403180A2A0C2AF2170D2AE4
:10041800F213720808006530F900843161248231D2
:100428004001ED004408C5005E2A24306506031D1E
:100438001E2A1F2A4D2AE61B222A232A272A661F3C
:10044800262A272A2A2AC615C5152C2AC611C511F7
:10045800671F2F2A302A3B2A07306905FB0007301F
:100468007B06031D382A392A3B2A45143C2A4510A5
:10047800EA1E3F2A402A4B2A07306905FB0007304D
:100488007B06031D482A492A4B2AC514632AC5102E
:10049800632A6503031D512A522A632A0730690516
:1004A800FB0007307B06031D5A2A5B2A632AC60114
:1004B800C501632A6D08013A0319192A632A451CE4
:1004C800662A672A6B2A8631202682316E2A86316F
:1004D800232682314001C51C722A732A772A863165
:1004E800142682317A2A8631172682314001C51DA9
:1004F8007E2A7F2A832A86311A268231862A8631E5
:100508001D26823140014508C40008004001E6006C
:100518006108E9006008E8003F30E605E701A52A20
:10052800680884006908850000086606031D9D2A7E
:100538009E2A9F2AAB2A0530E8070030E93D0130A2
:10054800E70764086702031CAA2AAB2A942A013029
:100558006807840069080318013E85000008D10077
:1005680002306807840069080318013E8500000806
:10057800D2004830F0000030F100033068078400F2
:1005880069080318013E8500003FF200013FF300AF
:100598005208F400F501F41BF503843183248231F9
:1005A80040014708F0004830F1000030F2005208DE
:1005B8008331C22382314001D0004708F900483016
:1005C800FA000030FB00520884313E2482310800D2
:1005D800F30040016108F6006008F5003F30F305BC
:1005E800F401172B75088400760885000008730647
:1005F800031DFF2A002B012B362B0530F507003091
:10060800F63D6408FF3EF100FF3003180030F200A9
:10061800740871067204031D122B132B152B02305C
:10062800492B0130F40764087402031C1C2B1D2B92
:10063800F62A362B75088400760885000008492BB1
:1006480001307507840076080318013E850000080C
:10065800492B02307507840076080318013E85008F
:100668000008492B7008F100F2017208003A0319DA
:100678003E2B132B7108003A03191E2B013A03195C
:10068800242B033A03192D2B132B08004E011712A4
:100698008830F0000330F1008531D32583314E01D5
:1006A8009711A330F0000430F1008531CD25833156
:1006B800093042019F0090309D0024309E00FF3099
:1006C8009B0002309C002B30F0000630F100853191
:1006D800DF2583310930F0000630F1008531D92556
:1006E80083310D30F0000630F1008531E525833186
:1006F8004001B801BE01BD010830BC00BB01BA0110
:10070800B9014E011716080040013B08203E86003B
:100718008701810142011D1D922B932B9E2B4001C5
:100728003B08203E8600870181145B088A005A082E
:100738000A00833142019D1CA22BA32BAE2B400142
:100748003B08203E86008701011559088A00580891
:100758000A00833140013B08203E860087010108DA
:100768000319B72BB82BBE2B57088A0056080A0066
:100778008331C12B8531082583310800F5007008C5
:10078800F300F4017308F7007408F800F601EA2B87
:10079800710886007208870001087707F700780853
:1007A8000318780AF8000130F1070030F23D0130F3
:1007B8007802003003197702031CE32BE42BE82BA3
:1007C800FF30F7020030F83B0130F6077508760273
:1007D800031CEF2BF02BCC2BF709F809770808003E
:1007E800F00040013C080319FA2BFB2BF52B4E01B6
:1007F8009719FF2B002C042C700842019A00172C23
:10080800971140013E08303E86008701700881003C
:100818000130BE0708303E02031C132C142C152C83
:10082800BE010130BC024E0197150800400139088D
:1008380003191F2C202C1A2C3A08203E8600870109
:100848000108B8003A08283E860087010108F00030
:100858000130BA0708303A02031C332C342C352CEB
:10086800BA014E01171201304001B9024E011716A4
:1008780070080800FC00FD014D2C7D087A078600F1
:1008880000307B3D870001088331F4238431013037
:10089800FD077C087D02031C522C532C412C79083F
:1008A800F0007B08F2007A08F1007C088331C2234B
:1008B80084318331F42384310800400147083F39EB
:1008C800FA007908F000F1014830F2000030F30036
:1008D8000830F4000030F500843183248431473037
:1008E800F0000030F1000030F200F3000D30F400A9
:1008F8000030F5008431DB2484317A08080072085E
:10090800F8007008F700962C78088600870101081F
:10091800F6000130F807770886008701760881001D
:100928000130F7070130F4020030F53B740A031D6B
:10093800A12C750A031DA12CA22C882C08000830B4
:1009480040013C020318A92CAA2CBE2C3D08303EBD
:1009580086008701010842019A0001304001BD0765
:1009680008303D02031CB92CBA2CBB2CBD01013048
:10097800BC07C02C4E0197110800F700F001F00ADF
:1009880077088231EC228431023A031DCC2CCD2C1D
:10099800CF2C0030DA2C77083F3981318921843116
:1009A8007706031DD82CD92CCD2C013008007008EF
:1009B800F600E52C76088600870172088100013070
:1009C800F6070130F4020030F53B740A031DF02CE1
:1009D800750A031DF02CF12CDE2C0800F6007308B4
:1009E8004001E1007208E0007608E4007508E300C1
:1009F8007408E2008531F02584318531FA25843187
:100A08008531B3258431080040013B08283E860023
:100A1800870142011908810001304001BB070830F5
:100A28003B02031C182D192D1A2DBB010130B907E3
:100A3800080045304B019F00F9309D009C014E0194
:100A48008C1296162A30F0000630F1008531C72541
:100A5800853180304B019E00080085314425853161
:100A68008531C125853186311126853185311D2590
:100A7800853183314A2385318531792585310800CF
:100A8800400198010C3092007E01B801B901BA0109
:100A98003730BB003F30BC0002307D01CB00053051
:100AA8007E019000080084311A248531003A031D24
:100AB8005E2D5F2D682D863126268531891C652D92
:100AC800662D682D0130692D003008004E018C120A
:100AD8004001540855040319722D732D782D5508BB
:100AE8008A0054080A0085310800EB30F20085308E
:100AF800F3000F30F4000230F50001308431F224A5
:100B080085310800F10071084001EE0000308531A0
:100B1800F5258531000001304001C2000800013090
:100B28004001C1076E084102031C9B2D9C2D9F2D7F
:100B380086310426853108008531312585318B17AA
:100B48000B1780314F208531A52D372840013908F2
:100B5800031DAF2DB12D0130B22D003008009330A8
:100B6800F0000530F1008531C725853108006400A3
:100B780080010131890BBC2D0034510191010530F0
:100B880093009201080071084001D5007008D40054
:100B9800080071084001DF007008DE0008007108D5
:100BA8004001DD007008DC00080071084001D90030
:100BB8007008D800080071084001DB007008DA00EE
:100BC800080071084001D7007008D60008000134F9
:100BD80001340834A034003400004001C101C201CE
:100BE8000800F00070084B019C00080042011D1627
:100BF8004E011716080042011D124E011712080077
:100C080000004001C101C201080042011D121D1669
:100C18000800853108258631080050018C0108003C
:100C28004001981608004001981208004001181663
:100C380008004001181208004001981408004001FB
:100C4800981008004001380808000A340800080015
:020000040001F9
:04000E00CD3FE73FBC
:04001400FF3FFF3F6C
:00000001FF
